{
  "contractName": "DeliveryAgentRole",
  "abi": [
    {
      "inputs": [],
      "payable": false,
      "stateMutability": "nonpayable",
      "type": "constructor"
    },
    {
      "anonymous": false,
      "inputs": [
        {
          "indexed": true,
          "name": "account",
          "type": "address"
        }
      ],
      "name": "deliveryAgentAdded",
      "type": "event"
    },
    {
      "anonymous": false,
      "inputs": [
        {
          "indexed": true,
          "name": "account",
          "type": "address"
        }
      ],
      "name": "deliveryAgentRemoved",
      "type": "event"
    },
    {
      "constant": true,
      "inputs": [
        {
          "name": "account",
          "type": "address"
        }
      ],
      "name": "isDeliveryAgent",
      "outputs": [
        {
          "name": "",
          "type": "bool"
        }
      ],
      "payable": false,
      "stateMutability": "view",
      "type": "function"
    },
    {
      "constant": false,
      "inputs": [
        {
          "name": "account",
          "type": "address"
        }
      ],
      "name": "addDeliveryAgent",
      "outputs": [],
      "payable": false,
      "stateMutability": "nonpayable",
      "type": "function"
    },
    {
      "constant": false,
      "inputs": [],
      "name": "renounceDeliveryAgent",
      "outputs": [],
      "payable": false,
      "stateMutability": "nonpayable",
      "type": "function"
    }
  ],
  "bytecode": "0x608060405234801561001057600080fd5b506100203361002560201b60201c565b6101c7565b61003d81600061008360201b61027c1790919060201c565b8073ffffffffffffffffffffffffffffffffffffffff167f5df38de6012bf22af34752ec3875e951e2c5481256d4f767ce35052fad66a87460405160405180910390a250565b600073ffffffffffffffffffffffffffffffffffffffff168173ffffffffffffffffffffffffffffffffffffffff1614156100bd57600080fd5b6100cd828261013560201b60201c565b156100d757600080fd5b60018260000160008373ffffffffffffffffffffffffffffffffffffffff1673ffffffffffffffffffffffffffffffffffffffff16815260200190815260200160002060006101000a81548160ff0219169083151502179055505050565b60008073ffffffffffffffffffffffffffffffffffffffff168273ffffffffffffffffffffffffffffffffffffffff16141561017057600080fd5b8260000160008373ffffffffffffffffffffffffffffffffffffffff1673ffffffffffffffffffffffffffffffffffffffff16815260200190815260200160002060009054906101000a900460ff16905092915050565b6103ff806101d66000396000f3fe608060405234801561001057600080fd5b50600436106100415760003560e01c8063192dfff9146100465780638143bd061461008a578063c70e9eec14610094575b600080fd5b6100886004803603602081101561005c57600080fd5b81019080803573ffffffffffffffffffffffffffffffffffffffff1690602001909291905050506100f0565b005b61009261010e565b005b6100d6600480360360208110156100aa57600080fd5b81019080803573ffffffffffffffffffffffffffffffffffffffff169060200190929190505050610119565b604051808215151515815260200191505060405180910390f35b6100f933610119565b61010257600080fd5b61010b81610136565b50565b61011733610190565b565b600061012f8260006101ea90919063ffffffff16565b9050919050565b61014a81600061027c90919063ffffffff16565b8073ffffffffffffffffffffffffffffffffffffffff167f5df38de6012bf22af34752ec3875e951e2c5481256d4f767ce35052fad66a87460405160405180910390a250565b6101a481600061032890919063ffffffff16565b8073ffffffffffffffffffffffffffffffffffffffff167f8251319b90faed74a7f1215b9b00d161c9f4810319ae51806495b9dffb65702a60405160405180910390a250565b60008073ffffffffffffffffffffffffffffffffffffffff168273ffffffffffffffffffffffffffffffffffffffff16141561022557600080fd5b8260000160008373ffffffffffffffffffffffffffffffffffffffff1673ffffffffffffffffffffffffffffffffffffffff16815260200190815260200160002060009054906101000a900460ff16905092915050565b600073ffffffffffffffffffffffffffffffffffffffff168173ffffffffffffffffffffffffffffffffffffffff1614156102b657600080fd5b6102c082826101ea565b156102ca57600080fd5b60018260000160008373ffffffffffffffffffffffffffffffffffffffff1673ffffffffffffffffffffffffffffffffffffffff16815260200190815260200160002060006101000a81548160ff0219169083151502179055505050565b600073ffffffffffffffffffffffffffffffffffffffff168173ffffffffffffffffffffffffffffffffffffffff16141561036257600080fd5b61036c82826101ea565b61037557600080fd5b60008260000160008373ffffffffffffffffffffffffffffffffffffffff1673ffffffffffffffffffffffffffffffffffffffff16815260200190815260200160002060006101000a81548160ff021916908315150217905550505056fea165627a7a72305820c009cb81d5910eb8e4352410e3ce945462e469f2c018e12078827962260900190029",
  "source": "\npragma solidity >=0.4.21 <0.6.0;\n// Import the library 'Roles'\nimport \"./Roles.sol\";\n\n// Define a contract 'DistributorRole' to manage this role - add, remove, check\ncontract DeliveryAgentRole {\n  using Roles for Roles.Role;\n\n  // Define 2 events, one for Adding, and other for Removing\n  event deliveryAgentAdded(address indexed account);\n  event deliveryAgentRemoved(address indexed account);\n\n  // Define a struct 'deliveryAgents' by inheriting from 'Roles' library, struct Role\n  Roles.Role private deliveryAgents;\n\n  // In the constructor make the address that deploys this contract the 1st deliveryAgent\n  constructor() public {\n \n    _addDeliveryAgent(msg.sender);\n\n  }\n\n  // Define a modifier that checks to see if msg.sender has the appropriate role\n  modifier onlyDeliveryAgent() {\n    require(isDeliveryAgent(msg.sender));\n\n    _;\n  }\n\n  // Define a function 'isDeliveryAgent' to check this role\n  function isDeliveryAgent(address account) public view returns (bool) {\n    return deliveryAgents.has(account);\n\n  }\n\n  // Define a function 'addDeliveryAgent' that adds this role\n  function addDeliveryAgent(address account) public onlyDeliveryAgent {\n    _addDeliveryAgent(account);\n\n  }\n\n  // Define a function 'renounceDeliveryAgent' to renounce this role\n  function renounceDeliveryAgent() public {\n    _removeDeliveryAgent(msg.sender);\n\n  }\n\n  // Define an internal function '_addDeliveryAgent' to add this role, called by '_ddDeliveryAgent'\n  function _addDeliveryAgent(address account) internal {\n    deliveryAgents.add(account);\n    emit deliveryAgentAdded(account);\n  }\n\n  // Define an internal function '_removeDeliveryAgent' to remove this role, called by 'removeDeliveryAgent'\n  function _removeDeliveryAgent(address account) internal {\n    deliveryAgents.remove(account);\n    emit deliveryAgentRemoved(account);\n  }\n}",
  "sourcePath": "C:\\Users\\Asus\\Desktop\\test55\\contracts\\access_control\\DeliveryAgentRole.sol",
  "compiler": {
    "name": "solc",
    "version": "0.5.8+commit.23d335f2.Emscripten.clang"
  },
  "schemaVersion": "3.0.11",
  "updatedAt": "2019-08-12T22:31:06.316Z",
  "devdoc": {
    "methods": {}
  },
  "userdoc": {
    "methods": {}
  }
}