{
  "contractName": "SupplyChain",
  "abi": [
    {
      "constant": false,
      "inputs": [
        {
          "name": "account",
          "type": "address"
        }
      ],
      "name": "addConsumer",
      "outputs": [],
      "payable": false,
      "stateMutability": "nonpayable",
      "type": "function"
    },
    {
      "constant": false,
      "inputs": [
        {
          "name": "account",
          "type": "address"
        }
      ],
      "name": "addDeliveryAgent",
      "outputs": [],
      "payable": false,
      "stateMutability": "nonpayable",
      "type": "function"
    },
    {
      "constant": false,
      "inputs": [],
      "name": "renounceConsumer",
      "outputs": [],
      "payable": false,
      "stateMutability": "nonpayable",
      "type": "function"
    },
    {
      "constant": false,
      "inputs": [],
      "name": "renounceSeller",
      "outputs": [],
      "payable": false,
      "stateMutability": "nonpayable",
      "type": "function"
    },
    {
      "constant": false,
      "inputs": [],
      "name": "renounceOwnership",
      "outputs": [],
      "payable": false,
      "stateMutability": "nonpayable",
      "type": "function"
    },
    {
      "constant": false,
      "inputs": [],
      "name": "renounceDeliveryAgent",
      "outputs": [],
      "payable": false,
      "stateMutability": "nonpayable",
      "type": "function"
    },
    {
      "constant": true,
      "inputs": [
        {
          "name": "account",
          "type": "address"
        }
      ],
      "name": "isConsumer",
      "outputs": [
        {
          "name": "",
          "type": "bool"
        }
      ],
      "payable": false,
      "stateMutability": "view",
      "type": "function"
    },
    {
      "constant": true,
      "inputs": [],
      "name": "owner",
      "outputs": [
        {
          "name": "",
          "type": "address"
        }
      ],
      "payable": false,
      "stateMutability": "view",
      "type": "function"
    },
    {
      "constant": true,
      "inputs": [],
      "name": "isOwner",
      "outputs": [
        {
          "name": "",
          "type": "bool"
        }
      ],
      "payable": false,
      "stateMutability": "view",
      "type": "function"
    },
    {
      "constant": true,
      "inputs": [
        {
          "name": "account",
          "type": "address"
        }
      ],
      "name": "isDeliveryAgent",
      "outputs": [
        {
          "name": "",
          "type": "bool"
        }
      ],
      "payable": false,
      "stateMutability": "view",
      "type": "function"
    },
    {
      "constant": false,
      "inputs": [
        {
          "name": "account",
          "type": "address"
        }
      ],
      "name": "addSeller",
      "outputs": [],
      "payable": false,
      "stateMutability": "nonpayable",
      "type": "function"
    },
    {
      "constant": true,
      "inputs": [
        {
          "name": "account",
          "type": "address"
        }
      ],
      "name": "isSeller",
      "outputs": [
        {
          "name": "",
          "type": "bool"
        }
      ],
      "payable": false,
      "stateMutability": "view",
      "type": "function"
    },
    {
      "constant": false,
      "inputs": [
        {
          "name": "newOwner",
          "type": "address"
        }
      ],
      "name": "transferOwnership",
      "outputs": [],
      "payable": false,
      "stateMutability": "nonpayable",
      "type": "function"
    },
    {
      "inputs": [],
      "payable": true,
      "stateMutability": "payable",
      "type": "constructor"
    },
    {
      "anonymous": false,
      "inputs": [
        {
          "indexed": false,
          "name": "upc",
          "type": "uint256"
        }
      ],
      "name": "Prepared",
      "type": "event"
    },
    {
      "anonymous": false,
      "inputs": [
        {
          "indexed": false,
          "name": "upc",
          "type": "uint256"
        }
      ],
      "name": "ForSale",
      "type": "event"
    },
    {
      "anonymous": false,
      "inputs": [
        {
          "indexed": false,
          "name": "upc",
          "type": "uint256"
        }
      ],
      "name": "Sold",
      "type": "event"
    },
    {
      "anonymous": false,
      "inputs": [
        {
          "indexed": false,
          "name": "upc",
          "type": "uint256"
        }
      ],
      "name": "Shipped",
      "type": "event"
    },
    {
      "anonymous": false,
      "inputs": [
        {
          "indexed": false,
          "name": "upc",
          "type": "uint256"
        }
      ],
      "name": "Delivered",
      "type": "event"
    },
    {
      "anonymous": false,
      "inputs": [
        {
          "indexed": false,
          "name": "upc",
          "type": "uint256"
        }
      ],
      "name": "Received",
      "type": "event"
    },
    {
      "anonymous": false,
      "inputs": [
        {
          "indexed": true,
          "name": "account",
          "type": "address"
        }
      ],
      "name": "deliveryAgentAdded",
      "type": "event"
    },
    {
      "anonymous": false,
      "inputs": [
        {
          "indexed": true,
          "name": "account",
          "type": "address"
        }
      ],
      "name": "deliveryAgentRemoved",
      "type": "event"
    },
    {
      "anonymous": false,
      "inputs": [
        {
          "indexed": true,
          "name": "account",
          "type": "address"
        }
      ],
      "name": "ConsumerAdded",
      "type": "event"
    },
    {
      "anonymous": false,
      "inputs": [
        {
          "indexed": true,
          "name": "account",
          "type": "address"
        }
      ],
      "name": "ConsumerRemoved",
      "type": "event"
    },
    {
      "anonymous": false,
      "inputs": [
        {
          "indexed": true,
          "name": "account",
          "type": "address"
        }
      ],
      "name": "SellerAdded",
      "type": "event"
    },
    {
      "anonymous": false,
      "inputs": [
        {
          "indexed": true,
          "name": "account",
          "type": "address"
        }
      ],
      "name": "SellerRemoved",
      "type": "event"
    },
    {
      "anonymous": false,
      "inputs": [
        {
          "indexed": true,
          "name": "oldOwner",
          "type": "address"
        },
        {
          "indexed": true,
          "name": "newOwner",
          "type": "address"
        }
      ],
      "name": "TransferOwnership",
      "type": "event"
    },
    {
      "constant": false,
      "inputs": [],
      "name": "kill",
      "outputs": [],
      "payable": false,
      "stateMutability": "nonpayable",
      "type": "function"
    },
    {
      "constant": false,
      "inputs": [
        {
          "name": "_upc",
          "type": "uint256"
        },
        {
          "name": "_originSellerID",
          "type": "address"
        },
        {
          "name": "_originSellerName",
          "type": "string"
        },
        {
          "name": "_originSellerInformation",
          "type": "string"
        },
        {
          "name": "_productNotes",
          "type": "string"
        },
        {
          "name": "_productPrice",
          "type": "uint256"
        }
      ],
      "name": "prepareItems",
      "outputs": [],
      "payable": false,
      "stateMutability": "nonpayable",
      "type": "function"
    },
    {
      "constant": false,
      "inputs": [
        {
          "name": "_upc",
          "type": "uint256"
        }
      ],
      "name": "addItemsToOnlineStore",
      "outputs": [],
      "payable": false,
      "stateMutability": "nonpayable",
      "type": "function"
    },
    {
      "constant": false,
      "inputs": [
        {
          "name": "_upc",
          "type": "uint256"
        }
      ],
      "name": "buyItems",
      "outputs": [],
      "payable": true,
      "stateMutability": "payable",
      "type": "function"
    },
    {
      "constant": false,
      "inputs": [
        {
          "name": "_upc",
          "type": "uint256"
        },
        {
          "name": "_deliveryAgentID",
          "type": "address"
        }
      ],
      "name": "shipItems",
      "outputs": [],
      "payable": false,
      "stateMutability": "nonpayable",
      "type": "function"
    },
    {
      "constant": false,
      "inputs": [
        {
          "name": "_upc",
          "type": "uint256"
        }
      ],
      "name": "DeliverItems",
      "outputs": [],
      "payable": false,
      "stateMutability": "nonpayable",
      "type": "function"
    },
    {
      "constant": false,
      "inputs": [
        {
          "name": "_upc",
          "type": "uint256"
        }
      ],
      "name": "receiveItem",
      "outputs": [],
      "payable": false,
      "stateMutability": "nonpayable",
      "type": "function"
    },
    {
      "constant": true,
      "inputs": [
        {
          "name": "_upc",
          "type": "uint256"
        }
      ],
      "name": "fetchItemBufferOne",
      "outputs": [
        {
          "name": "itemSKU",
          "type": "uint256"
        },
        {
          "name": "itemUPC",
          "type": "uint256"
        },
        {
          "name": "ownerID",
          "type": "address"
        },
        {
          "name": "originSellerID",
          "type": "address"
        },
        {
          "name": "originSellerName",
          "type": "string"
        },
        {
          "name": "originSellerInformation",
          "type": "string"
        }
      ],
      "payable": false,
      "stateMutability": "view",
      "type": "function"
    },
    {
      "constant": true,
      "inputs": [
        {
          "name": "_upc",
          "type": "uint256"
        }
      ],
      "name": "fetchItemBufferTwo",
      "outputs": [
        {
          "name": "itemSKU",
          "type": "uint256"
        },
        {
          "name": "itemUPC",
          "type": "uint256"
        },
        {
          "name": "productID",
          "type": "uint256"
        },
        {
          "name": "productNotes",
          "type": "string"
        },
        {
          "name": "productPrice",
          "type": "uint256"
        },
        {
          "name": "itemState",
          "type": "uint256"
        },
        {
          "name": "deliveryAgentID",
          "type": "address"
        },
        {
          "name": "consumerID",
          "type": "address"
        }
      ],
      "payable": false,
      "stateMutability": "view",
      "type": "function"
    }
  ],
  "bytecode": "0x6080604052336000806101000a81548173ffffffffffffffffffffffffffffffffffffffff021916908373ffffffffffffffffffffffffffffffffffffffff1602179055506000809054906101000a900473ffffffffffffffffffffffffffffffffffffffff1673ffffffffffffffffffffffffffffffffffffffff16600073ffffffffffffffffffffffffffffffffffffffff167f5c486528ec3e3f0ea91181cff8116f02bfa350e03b8b6f12e00765adbb5af85c60405160405180910390a3620000d1336200010960201b60201c565b620000e2336200016a60201b60201c565b620000f333620001cb60201b60201c565b6001600581905550600160048190555062000375565b620001248160016200022c60201b62001ff31790919060201c565b8073ffffffffffffffffffffffffffffffffffffffff167f3d78526f2568d430fd8e20719601f7bc3f979936f8880236cc284e8127251b4260405160405180910390a250565b620001858160026200022c60201b62001ff31790919060201c565b8073ffffffffffffffffffffffffffffffffffffffff167f28b26e7a3d20aedbc5f8f2ebf7da671c0491723a2b78f47a097b0e46dee0714260405160405180910390a250565b620001e68160036200022c60201b62001ff31790919060201c565b8073ffffffffffffffffffffffffffffffffffffffff167f5df38de6012bf22af34752ec3875e951e2c5481256d4f767ce35052fad66a87460405160405180910390a250565b600073ffffffffffffffffffffffffffffffffffffffff168173ffffffffffffffffffffffffffffffffffffffff1614156200026757600080fd5b620002798282620002e260201b60201c565b156200028457600080fd5b60018260000160008373ffffffffffffffffffffffffffffffffffffffff1673ffffffffffffffffffffffffffffffffffffffff16815260200190815260200160002060006101000a81548160ff0219169083151502179055505050565b60008073ffffffffffffffffffffffffffffffffffffffff168273ffffffffffffffffffffffffffffffffffffffff1614156200031e57600080fd5b8260000160008373ffffffffffffffffffffffffffffffffffffffff1673ffffffffffffffffffffffffffffffffffffffff16815260200190815260200160002060009054906101000a900460ff16905092915050565b61221b80620003856000396000f3fe6080604052600436106101355760003560e01c8063834ff739116100ab578063c70e9eec1161006f578063c70e9eec146108dd578063d93fabfa14610946578063dcb08d0514610997578063ee95feaf146109d2578063f2fde38b14610a3b578063f7a8208314610a8c57610135565b8063834ff739146105895780638da5cb5b146105f25780638f32d59b14610649578063a26be99914610678578063c648c7fd146106b357610135565b8063631f6d07116100fd578063631f6d071461024557806364c78f8c1461027357806366225ff91461028a578063715018a6146103c757806377c45913146103de5780638143bd061461057257610135565b8063112940f91461013a578063192dfff91461018b57806324448bc7146101dc57806341c0e1b51461021757806361e6982d1461022e575b600080fd5b34801561014657600080fd5b506101896004803603602081101561015d57600080fd5b81019080803573ffffffffffffffffffffffffffffffffffffffff169060200190929190505050610ae7565b005b34801561019757600080fd5b506101da600480360360208110156101ae57600080fd5b81019080803573ffffffffffffffffffffffffffffffffffffffff169060200190929190505050610b05565b005b3480156101e857600080fd5b50610215600480360360208110156101ff57600080fd5b8101908080359060200190929190505050610b23565b005b34801561022357600080fd5b5061022c610c44565b005b34801561023a57600080fd5b50610243610c9a565b005b6102716004803603602081101561025b57600080fd5b8101908080359060200190929190505050610ca5565b005b34801561027f57600080fd5b50610288610f76565b005b34801561029657600080fd5b506102c3600480360360208110156102ad57600080fd5b8101908080359060200190929190505050610f81565b60405180898152602001888152602001878152602001806020018681526020018581526020018473ffffffffffffffffffffffffffffffffffffffff1673ffffffffffffffffffffffffffffffffffffffff1681526020018373ffffffffffffffffffffffffffffffffffffffff1673ffffffffffffffffffffffffffffffffffffffff168152602001828103825287818151815260200191508051906020019080838360005b8381101561038557808201518184015260208101905061036a565b50505050905090810190601f1680156103b25780820380516001836020036101000a031916815260200191505b50995050505050505050505060405180910390f35b3480156103d357600080fd5b506103dc611169565b005b3480156103ea57600080fd5b506104176004803603602081101561040157600080fd5b8101908080359060200190929190505050611239565b604051808781526020018681526020018573ffffffffffffffffffffffffffffffffffffffff1673ffffffffffffffffffffffffffffffffffffffff1681526020018473ffffffffffffffffffffffffffffffffffffffff1673ffffffffffffffffffffffffffffffffffffffff1681526020018060200180602001838103835285818151815260200191508051906020019080838360005b838110156104cb5780820151818401526020810190506104b0565b50505050905090810190601f1680156104f85780820380516001836020036101000a031916815260200191505b50838103825284818151815260200191508051906020019080838360005b83811015610531578082015181840152602081019050610516565b50505050905090810190601f16801561055e5780820380516001836020036101000a031916815260200191505b509850505050505050505060405180910390f35b34801561057e57600080fd5b50610587611463565b005b34801561059557600080fd5b506105d8600480360360208110156105ac57600080fd5b81019080803573ffffffffffffffffffffffffffffffffffffffff16906020019092919050505061146e565b604051808215151515815260200191505060405180910390f35b3480156105fe57600080fd5b5061060761148b565b604051808273ffffffffffffffffffffffffffffffffffffffff1673ffffffffffffffffffffffffffffffffffffffff16815260200191505060405180910390f35b34801561065557600080fd5b5061065e6114b4565b604051808215151515815260200191505060405180910390f35b34801561068457600080fd5b506106b16004803603602081101561069b57600080fd5b810190808035906020019092919050505061150b565b005b3480156106bf57600080fd5b506108db600480360360c08110156106d657600080fd5b8101908080359060200190929190803573ffffffffffffffffffffffffffffffffffffffff1690602001909291908035906020019064010000000081111561071d57600080fd5b82018360208201111561072f57600080fd5b8035906020019184600183028401116401000000008311171561075157600080fd5b91908080601f016020809104026020016040519081016040528093929190818152602001838380828437600081840152601f19601f820116905080830192505050505050509192919290803590602001906401000000008111156107b457600080fd5b8201836020820111156107c657600080fd5b803590602001918460018302840111640100000000831117156107e857600080fd5b91908080601f016020809104026020016040519081016040528093929190818152602001838380828437600081840152601f19601f8201169050808301925050505050505091929192908035906020019064010000000081111561084b57600080fd5b82018360208201111561085d57600080fd5b8035906020019184600183028401116401000000008311171561087f57600080fd5b91908080601f016020809104026020016040519081016040528093929190818152602001838380828437600081840152601f19601f82011690508083019250505050505050919291929080359060200190929190505050611647565b005b3480156108e957600080fd5b5061092c6004803603602081101561090057600080fd5b81019080803573ffffffffffffffffffffffffffffffffffffffff16906020019092919050505061192e565b604051808215151515815260200191505060405180910390f35b34801561095257600080fd5b506109956004803603602081101561096957600080fd5b81019080803573ffffffffffffffffffffffffffffffffffffffff16906020019092919050505061194b565b005b3480156109a357600080fd5b506109d0600480360360208110156109ba57600080fd5b8101908080359060200190929190505050611969565b005b3480156109de57600080fd5b50610a21600480360360208110156109f557600080fd5b81019080803573ffffffffffffffffffffffffffffffffffffffff169060200190929190505050611a93565b604051808215151515815260200191505060405180910390f35b348015610a4757600080fd5b50610a8a60048036036020811015610a5e57600080fd5b81019080803573ffffffffffffffffffffffffffffffffffffffff169060200190929190505050611ab0565b005b348015610a9857600080fd5b50610ae560048036036040811015610aaf57600080fd5b8101908080359060200190929190803573ffffffffffffffffffffffffffffffffffffffff169060200190929190505050611acd565b005b610af03361146e565b610af957600080fd5b610b0281611c4d565b50565b610b0e3361192e565b610b1757600080fd5b610b2081611ca7565b50565b8060036005811115610b3157fe5b6006600083815260200190815260200160002060090160009054906101000a900460ff166005811115610b6057fe5b14610b6a57600080fd5b610b733361192e565b610b7c57600080fd5b336006600084815260200190815260200160002060090160016101000a81548173ffffffffffffffffffffffffffffffffffffffff021916908373ffffffffffffffffffffffffffffffffffffffff16021790555060046006600084815260200190815260200160002060090160006101000a81548160ff02191690836005811115610c0457fe5b02179055507ffcc296b8bdd64e3f1d1faadef50cb2d6550f645316330fe57cb1dd7e0612ead0826040518082815260200191505060405180910390a15050565b610c4c61148b565b73ffffffffffffffffffffffffffffffffffffffff163373ffffffffffffffffffffffffffffffffffffffff161415610c98573373ffffffffffffffffffffffffffffffffffffffff16ff5b565b610ca333611d01565b565b8060016005811115610cb357fe5b6006600083815260200190815260200160002060090160009054906101000a900460ff166005811115610ce257fe5b14610cec57600080fd5b600660008381526020019081526020016000206008015480341015610d1057600080fd5b82610d1a3361146e565b610d2357600080fd5b336006600086815260200190815260200160002060020160006101000a81548173ffffffffffffffffffffffffffffffffffffffff021916908373ffffffffffffffffffffffffffffffffffffffff1602179055503360066000868152602001908152602001600020600a0160006101000a81548173ffffffffffffffffffffffffffffffffffffffff021916908373ffffffffffffffffffffffffffffffffffffffff16021790555060026006600086815260200190815260200160002060090160006101000a81548160ff02191690836005811115610e0057fe5b02179055506006600085815260200190815260200160002060030160009054906101000a900473ffffffffffffffffffffffffffffffffffffffff1673ffffffffffffffffffffffffffffffffffffffff166108fc60066000878152602001908152602001600020600801549081150290604051600060405180830381858888f19350505050158015610e97573d6000803e3d6000fd5b507f92f64ca637d023f354075a4be751b169c1a8a9ccb6d33cdd0cb3520543995727846040518082815260200191505060405180910390a1600060066000838152602001908152602001600020600801549050600081340390506006600084815260200190815260200160002060020160009054906101000a900473ffffffffffffffffffffffffffffffffffffffff1673ffffffffffffffffffffffffffffffffffffffff166108fc829081150290604051600060405180830381858888f19350505050158015610f6d573d6000803e3d6000fd5b50505050505050565b610f7f33611d5b565b565b60008060006060600080600080600660008a8152602001908152602001600020600001549750600660008a8152602001908152602001600020600101549650600660008a8152602001908152602001600020600601549550600660008a81526020019081526020016000206007018054600181600116156101000203166002900480601f0160208091040260200160405190810160405280929190818152602001828054600181600116156101000203166002900480156110835780601f1061105857610100808354040283529160200191611083565b820191906000526020600020905b81548152906001019060200180831161106657829003601f168201915b50505050509450600660008a8152602001908152602001600020600801549350600660008a815260200190815260200160002060090160009054906101000a900460ff1660058111156110d257fe5b9250600660008a815260200190815260200160002060090160019054906101000a900473ffffffffffffffffffffffffffffffffffffffff169150600660008a8152602001908152602001600020600a0160009054906101000a900473ffffffffffffffffffffffffffffffffffffffff169050878787878787878797509750975097509750975097509750919395975091939597565b6111716114b4565b61117a57600080fd5b600073ffffffffffffffffffffffffffffffffffffffff166000809054906101000a900473ffffffffffffffffffffffffffffffffffffffff1673ffffffffffffffffffffffffffffffffffffffff167f5c486528ec3e3f0ea91181cff8116f02bfa350e03b8b6f12e00765adbb5af85c60405160405180910390a360008060006101000a81548173ffffffffffffffffffffffffffffffffffffffff021916908373ffffffffffffffffffffffffffffffffffffffff160217905550565b60008060008060608060066000888152602001908152602001600020600001549550600660008881526020019081526020016000206001015494506006600088815260200190815260200160002060020160009054906101000a900473ffffffffffffffffffffffffffffffffffffffff1693506006600088815260200190815260200160002060030160009054906101000a900473ffffffffffffffffffffffffffffffffffffffff169250600660008881526020019081526020016000206004018054600181600116156101000203166002900480601f0160208091040260200160405190810160405280929190818152602001828054600181600116156101000203166002900480156113905780601f1061136557610100808354040283529160200191611390565b820191906000526020600020905b81548152906001019060200180831161137357829003601f168201915b50505050509150600660008881526020019081526020016000206005018054600181600116156101000203166002900480601f0160208091040260200160405190810160405280929190818152602001828054600181600116156101000203166002900480156114415780601f1061141657610100808354040283529160200191611441565b820191906000526020600020905b81548152906001019060200180831161142457829003601f168201915b5050505050905085858585858595509550955095509550955091939550919395565b61146c33611db5565b565b6000611484826002611e0f90919063ffffffff16565b9050919050565b60008060009054906101000a900473ffffffffffffffffffffffffffffffffffffffff16905090565b60008060009054906101000a900473ffffffffffffffffffffffffffffffffffffffff1673ffffffffffffffffffffffffffffffffffffffff163373ffffffffffffffffffffffffffffffffffffffff1614905090565b806004600581111561151957fe5b6006600083815260200190815260200160002060090160009054906101000a900460ff16600581111561154857fe5b1461155257600080fd5b61155b3361146e565b61156457600080fd5b60066000838152602001908152602001600020600a0160009054906101000a900473ffffffffffffffffffffffffffffffffffffffff168073ffffffffffffffffffffffffffffffffffffffff163373ffffffffffffffffffffffffffffffffffffffff16146115d357600080fd5b60056006600085815260200190815260200160002060090160006101000a81548160ff0219169083600581111561160657fe5b02179055507fa8142743f8f70a4c26f3691cf4ed59718381fb2f18070ec52be1f1022d855557836040518082815260200191505060405180910390a1505050565b60405180610180016040528060055481526020018781526020018673ffffffffffffffffffffffffffffffffffffffff1681526020018673ffffffffffffffffffffffffffffffffffffffff16815260200185815260200184815260200187600554018152602001838152602001828152602001600060058111156116c857fe5b8152602001600073ffffffffffffffffffffffffffffffffffffffff168152602001600073ffffffffffffffffffffffffffffffffffffffff1681525060066000888152602001908152602001600020600082015181600001556020820151816001015560408201518160020160006101000a81548173ffffffffffffffffffffffffffffffffffffffff021916908373ffffffffffffffffffffffffffffffffffffffff16021790555060608201518160030160006101000a81548173ffffffffffffffffffffffffffffffffffffffff021916908373ffffffffffffffffffffffffffffffffffffffff16021790555060808201518160040190805190602001906117d692919061214a565b5060a08201518160050190805190602001906117f392919061214a565b5060c0820151816006015560e082015181600701908051906020019061181a92919061214a565b5061010082015181600801556101208201518160090160006101000a81548160ff0219169083600581111561184b57fe5b02179055506101408201518160090160016101000a81548173ffffffffffffffffffffffffffffffffffffffff021916908373ffffffffffffffffffffffffffffffffffffffff16021790555061016082015181600a0160006101000a81548173ffffffffffffffffffffffffffffffffffffffff021916908373ffffffffffffffffffffffffffffffffffffffff1602179055509050506001600554016005819055507fe1c9a8a8541f088f3d82b88119baa07d2e9f59c150d7f3e53867e237c97ad546866040518082815260200191505060405180910390a1505050505050565b6000611944826003611e0f90919063ffffffff16565b9050919050565b61195433611a93565b61195d57600080fd5b61196681611ea1565b50565b806000600581111561197757fe5b6006600083815260200190815260200160002060090160009054906101000a900460ff1660058111156119a657fe5b146119b057600080fd5b6006600083815260200190815260200160002060030160009054906101000a900473ffffffffffffffffffffffffffffffffffffffff168073ffffffffffffffffffffffffffffffffffffffff163373ffffffffffffffffffffffffffffffffffffffff1614611a1f57600080fd5b60016006600085815260200190815260200160002060090160006101000a81548160ff02191690836005811115611a5257fe5b02179055507fa96ae0fc3224ebd79eebfe54bd130cc9cb94416cddd1f2386115e00b72532468836040518082815260200191505060405180910390a1505050565b6000611aa9826001611e0f90919063ffffffff16565b9050919050565b611ab86114b4565b611ac157600080fd5b611aca81611efb565b50565b8160026005811115611adb57fe5b6006600083815260200190815260200160002060090160009054906101000a900460ff166005811115611b0a57fe5b14611b1457600080fd5b6006600084815260200190815260200160002060030160009054906101000a900473ffffffffffffffffffffffffffffffffffffffff168073ffffffffffffffffffffffffffffffffffffffff163373ffffffffffffffffffffffffffffffffffffffff1614611b8357600080fd5b60036006600086815260200190815260200160002060090160006101000a81548160ff02191690836005811115611bb657fe5b0217905550826006600086815260200190815260200160002060090160016101000a81548173ffffffffffffffffffffffffffffffffffffffff021916908373ffffffffffffffffffffffffffffffffffffffff1602179055507ff00b9a5725b80c54016f42114f6ed7792d22eecb116011c4afac29c57bef6c95846040518082815260200191505060405180910390a150505050565b611c61816002611ff390919063ffffffff16565b8073ffffffffffffffffffffffffffffffffffffffff167f28b26e7a3d20aedbc5f8f2ebf7da671c0491723a2b78f47a097b0e46dee0714260405160405180910390a250565b611cbb816003611ff390919063ffffffff16565b8073ffffffffffffffffffffffffffffffffffffffff167f5df38de6012bf22af34752ec3875e951e2c5481256d4f767ce35052fad66a87460405160405180910390a250565b611d1581600261209f90919063ffffffff16565b8073ffffffffffffffffffffffffffffffffffffffff167fe3f5ed5f263f1f01764a96edfc7d025f511ec5f7d180e8816908b78bcf74f09860405160405180910390a250565b611d6f81600161209f90919063ffffffff16565b8073ffffffffffffffffffffffffffffffffffffffff167fa6f3b3030df964d974376ba4db21cbe49207bd79998f0d619c1c3a422259707f60405160405180910390a250565b611dc981600361209f90919063ffffffff16565b8073ffffffffffffffffffffffffffffffffffffffff167f8251319b90faed74a7f1215b9b00d161c9f4810319ae51806495b9dffb65702a60405160405180910390a250565b60008073ffffffffffffffffffffffffffffffffffffffff168273ffffffffffffffffffffffffffffffffffffffff161415611e4a57600080fd5b8260000160008373ffffffffffffffffffffffffffffffffffffffff1673ffffffffffffffffffffffffffffffffffffffff16815260200190815260200160002060009054906101000a900460ff16905092915050565b611eb5816001611ff390919063ffffffff16565b8073ffffffffffffffffffffffffffffffffffffffff167f3d78526f2568d430fd8e20719601f7bc3f979936f8880236cc284e8127251b4260405160405180910390a250565b600073ffffffffffffffffffffffffffffffffffffffff168173ffffffffffffffffffffffffffffffffffffffff161415611f3557600080fd5b8073ffffffffffffffffffffffffffffffffffffffff166000809054906101000a900473ffffffffffffffffffffffffffffffffffffffff1673ffffffffffffffffffffffffffffffffffffffff167f5c486528ec3e3f0ea91181cff8116f02bfa350e03b8b6f12e00765adbb5af85c60405160405180910390a3806000806101000a81548173ffffffffffffffffffffffffffffffffffffffff021916908373ffffffffffffffffffffffffffffffffffffffff16021790555050565b600073ffffffffffffffffffffffffffffffffffffffff168173ffffffffffffffffffffffffffffffffffffffff16141561202d57600080fd5b6120378282611e0f565b1561204157600080fd5b60018260000160008373ffffffffffffffffffffffffffffffffffffffff1673ffffffffffffffffffffffffffffffffffffffff16815260200190815260200160002060006101000a81548160ff0219169083151502179055505050565b600073ffffffffffffffffffffffffffffffffffffffff168173ffffffffffffffffffffffffffffffffffffffff1614156120d957600080fd5b6120e38282611e0f565b6120ec57600080fd5b60008260000160008373ffffffffffffffffffffffffffffffffffffffff1673ffffffffffffffffffffffffffffffffffffffff16815260200190815260200160002060006101000a81548160ff0219169083151502179055505050565b828054600181600116156101000203166002900490600052602060002090601f016020900481019282601f1061218b57805160ff19168380011785556121b9565b828001600101855582156121b9579182015b828111156121b857825182559160200191906001019061219d565b5b5090506121c691906121ca565b5090565b6121ec91905b808211156121e85760008160009055506001016121d0565b5090565b9056fea165627a7a723058202c5713f71bcf177c0f727901a93ff889b3702fadce9650e62a8f911b2a54218e0029",
  "source": "\npragma solidity >=0.4.21 <0.6.0;\n//pragma solidity ^0.5.1;\n// Define a contract 'Supplychain'\nimport \"../access_control/SellerRole.sol\";//seller\nimport \"../access_control/ConsumerRole.sol\";//Consumer\nimport \"../access_control/DeliveryAgentRole.sol\";//DeliveryAgent\nimport \"../core/Ownable.sol\";\n\n  contract SupplyChain is Ownable, SellerRole, ConsumerRole, DeliveryAgentRole{\n\n  // Define a variable called 'upc' for Universal Product Code (UPC)\n  uint  upc;\n\n  // Define a variable called 'sku' for Stock Keeping Unit (SKU)\n  uint  sku;\n\n  // Define a public mapping 'items' that maps the UPC to an Item.\n  mapping (uint => Item) items;\n\n  // Define a public mapping 'itemsHistory' that maps the UPC to an array of TxHash, \n  // that  its journey through the supply chain -- to be sent from DApp.\n  mapping (uint => string[]) itemsHistory;\n  \n  // Define enum 'State' with the following values:\n  enum State \n  { \n    Prepared,   //0\n    ForSale,    // 1\n    Sold,       // 2\n    Shipped,    // 3\n    Delivered,  // 4\n    Received    //5\n    }\n\n  State constant defaultState = State.Prepared;\n\n  // Define a struct 'Item' with the following fields:\n  struct Item {\n    uint    sku;  // Stock Keeping Unit (SKU)\n    uint    upc; // Universal Product Code (UPC), generated by the Farmer, goes on the package, can be verified by the Consumer\n    address payable  ownerID;  // Metamask-Ethereum address of the current owner as the product moves through 8 stages\n    address payable  originSellerID; // Metamask-Ethereum address of the Farmer\n    string   originSellerName; // Seller Name\n    string   originSellerInformation;  // Seller Information\n    uint    productID;  // Product ID potentially a combination of upc + sku\n    string  productNotes; // Product Notes\n    uint    productPrice; // Product Price\n    State   itemState;  // Product State as represented in the enum above\n    address payable  deliveryAgentID;  // Metamask-Ethereum address of the Distributor\n    address payable  consumerID; // Metamask-Ethereum address of the Consumer\n  }\n\n  // Define 5 events with the same 4 state values and accept 'upc' as input argument\n  event Prepared(uint upc);\n  event ForSale(uint upc);\n  event Sold(uint upc);\n  event Shipped(uint upc);\n  event Delivered(uint upc);\n  event Received(uint upc);\n\n  // Define a modifer that verifies the Caller\n  modifier verifyCaller (address _address) {\n    require(msg.sender == _address); \n    _;\n  }\n  // Define a modifier that checks if the paid amount is sufficient to cover the price\n  modifier paidEnough(uint _price) { \n    require(msg.value >= _price); \n    _;\n  }\n\n  modifier checkValue(uint _upc) {\n    _;\n    uint _price = items[_upc].productPrice;\n    uint amountToReturn = msg.value - _price;\n    items[_upc].ownerID.transfer(amountToReturn);\n  }\n\n    // Define a modifier that checks if an item.state of a upc is Prepared\n  modifier prepared(uint _upc) {\n    require(items[_upc].itemState == State.Prepared);\n\n    _;\n  }\n  // first state Define a modifier that checks if an item.state of a upc is ForSale\n  modifier forSale(uint _upc) {\n    require(items[_upc].itemState == State.ForSale);\n    _;\n  }\n\n  //second Define a modifier that checks if an item.state of a upc is Sold\n  modifier sold(uint _upc) {\n    require(items[_upc].itemState == State.Sold);\n    _;\n  }\n  \n  // third Define a modifier that checks if an item.state of a upc is Shipped\n  modifier shipped(uint _upc) {\n    require(items[_upc].itemState == State.Shipped);\n\n    _;\n  }\n\n  // forth Define a modifier that checks if an item.state of a upc is delivered\n  modifier delivered(uint _upc) {\n    require(items[_upc].itemState == State.Delivered);\n\n    _;\n  }\n  // fifth Define a modifier that checks if an item.state of a upc is Received\n  modifier received(uint _upc) {\n    require(items[_upc].itemState == State.Received);\n\n    _;\n  }\n\n  // In the constructor set 'owner' to the address that instantiated the contract\n  // and set 'sku' to 1\n  // and set 'upc' to 1\n  constructor() public payable {\n    sku = 1;\n    upc = 1;\n  }\n\n  // Define a function 'kill' if required\n  function kill() public {\n    if (msg.sender == owner()) {\n      selfdestruct(msg.sender);\n    }\n  }\n\n  // Define a function 'prepareItems' that allows a seller to mark an item 'Prepared'\n  function prepareItems(uint _upc, address payable  _originSellerID, string  memory _originSellerName, string memory _originSellerInformation, string memory _productNotes, uint _productPrice)  public {\n// Add the new item \n    items[_upc] = Item({\n      sku: sku,\n      upc: _upc,\n      ownerID: _originSellerID,\n      productID: sku + _upc ,\n      originSellerID: _originSellerID,\n      originSellerName: _originSellerName,\n      originSellerInformation: _originSellerInformation ,\n      productNotes: _productNotes,\n      itemState: State.Prepared,\n      productPrice: _productPrice,\n      deliveryAgentID:address(0),\n      consumerID: address(0)\n       });\n\n  // Increment sku\n    sku = sku + 1;\n    // Emit the appropriate event\n    emit Prepared(_upc);\n  }\n  \n  // Define a function 'addItemsToOnlineStore' that allows a seller to mark an item 'ForSale'\n  function addItemsToOnlineStore(uint _upc)  public \n  // Call modifier to check if upc has passed previous supply chain stage  \n  prepared(_upc) \n  // Call modifier to verify caller of this function\n  verifyCaller(items[_upc].originSellerID)         \n  {\n    // Update the appropriate fields\n    items[_upc].itemState = State.ForSale;\n    // Emit the appropriate event\n    emit ForSale(_upc);\n  }\n  \n  // Define a function 'buyItems' that allows a seller to mark an item 'sold'\n  function buyItems(uint _upc) public payable\n  // Call modifier to check if upc has passed previous supply chain stage\n  forSale(_upc)\n    // Call modifer to check if buyer has paid enough\n    paidEnough(items[_upc].productPrice)\n    // Call modifer to send any excess ether back to buyer\n    checkValue(_upc)\n  // Call modifier to verify caller of this function\n   onlyConsumer()\n  {\n        items[_upc].ownerID = msg.sender;\n        items[_upc].consumerID = msg.sender;\n        items[_upc].itemState = State.Sold; \n        // Transfer money to seller\n        items[_upc].originSellerID.transfer(items[_upc].productPrice);\n        // emit the appropriate event\n        emit Sold(_upc); \n  }\n\n  // Define a function 'shipItems' that allows a seller to mark an item 'sold'\n  function shipItems(uint _upc,address payable  _deliveryAgentID) public \n  // Call modifier to check if upc has passed previous supply chain stage\n    sold(_upc)\n  // Call modifier to verify caller of this function\n            verifyCaller(items[_upc].originSellerID)\n  {\n    // Update the appropriate fields\n        items[_upc].itemState = State.Shipped;\n        items[_upc].deliveryAgentID = _deliveryAgentID;\n    // Emit the appropriate event\n        emit Shipped(_upc);\n\n  }\n\n    // Define a function 'DeliverItems' that allows a Delivey to mark an item 'Delivered'\n  function DeliverItems(uint _upc) public  \n    // Call modifier to check if upc has passed previous supply chain stage\n    shipped(_upc)\n    // Call modifier to verify caller of this function\n    onlyDeliveryAgent()\n{\n     items[_upc].deliveryAgentID = msg.sender;\n\n     items[_upc].itemState = State.Delivered;\n\n    // emit the appropriate event\n            emit Delivered(_upc); \n}\n\n  // Define a function 'receiveItem' that allows the consumer to mark an item 'Received'\n  function receiveItem(uint _upc) public \n    // Call modifier to check if upc has passed previous supply chain stage\n    delivered(_upc)\n    // Access Control List enforced by calling Smart Contract / DApp\n    onlyConsumer()\n    verifyCaller(items[_upc].consumerID)\n    {\n                items[_upc].itemState = State.Received;\n\n    // Emit the appropriate event\n                emit Received(_upc);\n\n  }\n  \n  // Define a function 'fetchItemBufferOne' that fetches the data\n  function fetchItemBufferOne(uint _upc) public view returns \n  (\n  uint    itemSKU,\n  uint    itemUPC,\n  address ownerID,\n  address originSellerID,\n  string  memory  originSellerName,\n  string  memory  originSellerInformation\n   ) \n  {\n  // Assign values to the 8 parameters\n //muist check\n  itemSKU =   items[_upc].sku ;\n   itemUPC  = items[_upc].upc;\n  ownerID  = items[_upc].ownerID;\n  originSellerID  = items[_upc].originSellerID;\n  originSellerName  = items[_upc].originSellerName;\n  originSellerInformation  = items[_upc].originSellerInformation;\n   return \n  (\n  itemSKU ,\n  itemUPC,\n  ownerID,\n  originSellerID,\n  originSellerName,\n  originSellerInformation\n   );\n  }\n\n  // Define a function 'fetchItemBufferTwo' that fetches the data\n  function fetchItemBufferTwo(uint _upc) public view returns \n  (\n  uint    itemSKU,\n  uint    itemUPC,\n  uint    productID,\n  string memory productNotes,\n  uint    productPrice,\n  uint    itemState,\n  address deliveryAgentID,\n   address consumerID\n  ) \n  {\n\n  itemSKU =   items[_upc].sku ;\n  itemUPC  = items[_upc].upc;\n  productID  = items[_upc].productID;\n  productNotes  = items[_upc].productNotes;\n  productPrice  = items[_upc].productPrice;\n  itemState  = uint(items[_upc].itemState); \n  deliveryAgentID  = items[_upc].deliveryAgentID;\n  consumerID  = items[_upc].consumerID;\n    // Assign values to the 9 parameters\n    \n  return \n  (\n  itemSKU,\n  itemUPC,\n  productID,\n  productNotes,\n  productPrice,\n  itemState,\n  deliveryAgentID,\n  consumerID\n  );\n  }\n}\n",
  "sourcePath": "C:/Users/Asus/Desktop/test55/contracts/base/SupplyChain.sol",
  "compiler": {
    "name": "solc",
    "version": "0.5.8+commit.23d335f2.Emscripten.clang"
  },
  "schemaVersion": "3.0.11",
  "updatedAt": "2019-08-12T22:21:44.705Z",
  "devdoc": {
    "methods": {}
  },
  "userdoc": {
    "methods": {
      "isOwner()": {
        "notice": "Check if the calling address is the owner of the contract"
      },
      "owner()": {
        "notice": "Look up the address of the owner"
      },
      "renounceOwnership()": {
        "notice": "Define a function to renounce ownerhip"
      },
      "transferOwnership(address)": {
        "notice": "Define a public function to transfer ownership"
      }
    }
  }
}